{
  "_format": "hh-sol-artifact-1",
  "contractName": "MultiSig",
  "sourceName": "contracts/MultiSigWallet.sol",
  "abi": [
    {
      "anonymous": false,
      "inputs": [
        {
          "indexed": false,
          "internalType": "uint256",
          "name": "",
          "type": "uint256"
        }
      ],
      "name": "AddOwner",
      "type": "event"
    },
    {
      "anonymous": false,
      "inputs": [
        {
          "indexed": false,
          "internalType": "address",
          "name": "",
          "type": "address"
        },
        {
          "indexed": false,
          "internalType": "uint256",
          "name": "",
          "type": "uint256"
        }
      ],
      "name": "Deposit",
      "type": "event"
    },
    {
      "anonymous": false,
      "inputs": [
        {
          "indexed": false,
          "internalType": "address",
          "name": "",
          "type": "address"
        },
        {
          "indexed": false,
          "internalType": "uint256",
          "name": "",
          "type": "uint256"
        }
      ],
      "name": "Withdraw",
      "type": "event"
    },
    {
      "inputs": [
        {
          "internalType": "address[]",
          "name": "_owners",
          "type": "address[]"
        }
      ],
      "name": "addOwner",
      "outputs": [],
      "stateMutability": "nonpayable",
      "type": "function"
    },
    {
      "inputs": [],
      "name": "checkMultiSigWallet",
      "outputs": [
        {
          "internalType": "address",
          "name": "",
          "type": "address"
        }
      ],
      "stateMutability": "view",
      "type": "function"
    },
    {
      "inputs": [],
      "name": "checkRequestConfirm",
      "outputs": [
        {
          "internalType": "uint8",
          "name": "",
          "type": "uint8"
        }
      ],
      "stateMutability": "view",
      "type": "function"
    },
    {
      "inputs": [],
      "name": "createMultiSigWallet",
      "outputs": [],
      "stateMutability": "nonpayable",
      "type": "function"
    },
    {
      "inputs": [],
      "name": "deposit",
      "outputs": [],
      "stateMutability": "payable",
      "type": "function"
    },
    {
      "inputs": [],
      "name": "getBalance",
      "outputs": [
        {
          "internalType": "uint256",
          "name": "",
          "type": "uint256"
        }
      ],
      "stateMutability": "view",
      "type": "function"
    },
    {
      "inputs": [],
      "name": "getMaxNumberOfWithdrawConfirmations",
      "outputs": [
        {
          "internalType": "uint8",
          "name": "",
          "type": "uint8"
        }
      ],
      "stateMutability": "view",
      "type": "function"
    },
    {
      "inputs": [],
      "name": "getOwners",
      "outputs": [
        {
          "internalType": "address[]",
          "name": "",
          "type": "address[]"
        }
      ],
      "stateMutability": "view",
      "type": "function"
    },
    {
      "inputs": [],
      "name": "maxNumberOfWithdrawConfirmations",
      "outputs": [
        {
          "internalType": "uint8",
          "name": "",
          "type": "uint8"
        }
      ],
      "stateMutability": "view",
      "type": "function"
    },
    {
      "inputs": [
        {
          "internalType": "uint8",
          "name": "_num",
          "type": "uint8"
        }
      ],
      "name": "setMaxNumberOfWithdrawConfirmations",
      "outputs": [],
      "stateMutability": "nonpayable",
      "type": "function"
    },
    {
      "inputs": [],
      "name": "setRequestWithdrawConfirm",
      "outputs": [],
      "stateMutability": "nonpayable",
      "type": "function"
    },
    {
      "inputs": [
        {
          "internalType": "uint256",
          "name": "amount",
          "type": "uint256"
        }
      ],
      "name": "withdraw",
      "outputs": [],
      "stateMutability": "payable",
      "type": "function"
    }
  ],
  "bytecode": "0x608060405234801561001057600080fd5b50610e94806100206000396000f3fe6080604052600436106100a75760003560e01c806373855db31161006457806373855db31461018757806380bb2093146101b2578063a0e67e2b146101dd578063d0e30db014610208578063e486030d14610212578063f5bafba514610229576100a7565b80630137abc9146100ac57806312065fe0146100d55780632e1a7d4d14610100578063561b40b71461011c5780635753b6a4146101475780636c3dc9431461015e575b600080fd5b3480156100b857600080fd5b506100d360048036038101906100ce9190610a64565b610254565b005b3480156100e157600080fd5b506100ea610459565b6040516100f79190610c0f565b60405180910390f35b61011a60048036038101906101159190610aa5565b610461565b005b34801561012857600080fd5b50610131610625565b60405161013e9190610ba9565b60405180910390f35b34801561015357600080fd5b5061015c61064e565b005b34801561016a57600080fd5b5061018560048036038101906101809190610ace565b610690565b005b34801561019357600080fd5b5061019c610706565b6040516101a99190610c2a565b60405180910390f35b3480156101be57600080fd5b506101c761075d565b6040516101d49190610c2a565b60405180910390f35b3480156101e957600080fd5b506101f2610770565b6040516101ff9190610bed565b60405180910390f35b6102106107fe565b005b34801561021e57600080fd5b506102276108ff565b005b34801561023557600080fd5b5061023e610978565b60405161024b9190610c2a565b60405180910390f35b60008054906101000a900473ffffffffffffffffffffffffffffffffffffffff1673ffffffffffffffffffffffffffffffffffffffff163373ffffffffffffffffffffffffffffffffffffffff16146102ac57600080fd5b60008151116102ba57600080fd5b60005b81518160ff16101561041d576001806000848460ff168151811061030a577f4e487b7100000000000000000000000000000000000000000000000000000000600052603260045260246000fd5b602002602001015173ffffffffffffffffffffffffffffffffffffffff1673ffffffffffffffffffffffffffffffffffffffff16815260200190815260200160002060006101000a81548160ff021916908360ff1602179055506002828260ff16815181106103a2577f4e487b7100000000000000000000000000000000000000000000000000000000600052603260045260246000fd5b60200260200101519080600181540180825580915050600190039060005260206000200160009091909190916101000a81548173ffffffffffffffffffffffffffffffffffffffff021916908373ffffffffffffffffffffffffffffffffffffffff160217905550808061041590610d80565b9150506102bd565b507f0488f51071bff9f21db3ccaee9088a126f6e019f9f200113d22798e0ecb92b51815160405161044e9190610c0f565b60405180910390a150565b600047905090565b60008054906101000a900473ffffffffffffffffffffffffffffffffffffffff1673ffffffffffffffffffffffffffffffffffffffff163373ffffffffffffffffffffffffffffffffffffffff161480610509575060018060003373ffffffffffffffffffffffffffffffffffffffff1673ffffffffffffffffffffffffffffffffffffffff16815260200190815260200160002060009054906101000a900460ff1660ff16145b61051257600080fd5b80471161051e57600080fd5b60008054906101000a900473ffffffffffffffffffffffffffffffffffffffff1673ffffffffffffffffffffffffffffffffffffffff163373ffffffffffffffffffffffffffffffffffffffff161461059b57600460009054906101000a900460ff1660ff1661058c610706565b60ff16101561059a57600080fd5b5b3373ffffffffffffffffffffffffffffffffffffffff166108fc829081150290604051600060405180830381858888f193505050501580156105e1573d6000803e3d6000fd5b507f884edad9ce6fa2440d8a54cc123490eb96d2768479d49ff9c7366125a94243643361060c610459565b60405161061a929190610bc4565b60405180910390a150565b60008060009054906101000a900473ffffffffffffffffffffffffffffffffffffffff16905090565b336000806101000a81548173ffffffffffffffffffffffffffffffffffffffff021916908373ffffffffffffffffffffffffffffffffffffffff160217905550565b60008054906101000a900473ffffffffffffffffffffffffffffffffffffffff1673ffffffffffffffffffffffffffffffffffffffff163373ffffffffffffffffffffffffffffffffffffffff16146106e857600080fd5b80600460006101000a81548160ff021916908360ff16021790555050565b6000600360003373ffffffffffffffffffffffffffffffffffffffff1673ffffffffffffffffffffffffffffffffffffffff16815260200190815260200160002060000160009054906101000a900460ff16905090565b600460009054906101000a900460ff1681565b606060028054806020026020016040519081016040528092919081815260200182805480156107f457602002820191906000526020600020905b8160009054906101000a900473ffffffffffffffffffffffffffffffffffffffff1673ffffffffffffffffffffffffffffffffffffffff16815260200190600101908083116107aa575b5050505050905090565b60008054906101000a900473ffffffffffffffffffffffffffffffffffffffff1673ffffffffffffffffffffffffffffffffffffffff163373ffffffffffffffffffffffffffffffffffffffff1614806108a6575060018060003373ffffffffffffffffffffffffffffffffffffffff1673ffffffffffffffffffffffffffffffffffffffff16815260200190815260200160002060009054906101000a900460ff1660ff16145b6108af57600080fd5b60003414156108bd57600080fd5b7fe1fffcc4923d04b559f4d29a8bfc6cda04eb5b0d3c460751c2402c5c5cc9109c336108e7610459565b6040516108f5929190610bc4565b60405180910390a1565b6001600360003373ffffffffffffffffffffffffffffffffffffffff1673ffffffffffffffffffffffffffffffffffffffff16815260200190815260200160002060000160008282829054906101000a900460ff1661095e9190610ccf565b92506101000a81548160ff021916908360ff160217905550565b6000600460009054906101000a900460ff16905090565b60006109a261099d84610c6a565b610c45565b905080838252602082019050828560208602820111156109c157600080fd5b60005b858110156109f157816109d788826109fb565b8452602084019350602083019250506001810190506109c4565b5050509392505050565b600081359050610a0a81610e19565b92915050565b600082601f830112610a2157600080fd5b8135610a3184826020860161098f565b91505092915050565b600081359050610a4981610e30565b92915050565b600081359050610a5e81610e47565b92915050565b600060208284031215610a7657600080fd5b600082013567ffffffffffffffff811115610a9057600080fd5b610a9c84828501610a10565b91505092915050565b600060208284031215610ab757600080fd5b6000610ac584828501610a3a565b91505092915050565b600060208284031215610ae057600080fd5b6000610aee84828501610a4f565b91505092915050565b6000610b038383610b0f565b60208301905092915050565b610b1881610d06565b82525050565b610b2781610d06565b82525050565b6000610b3882610ca6565b610b428185610cbe565b9350610b4d83610c96565b8060005b83811015610b7e578151610b658882610af7565b9750610b7083610cb1565b925050600181019050610b51565b5085935050505092915050565b610b9481610d38565b82525050565b610ba381610d42565b82525050565b6000602082019050610bbe6000830184610b1e565b92915050565b6000604082019050610bd96000830185610b1e565b610be66020830184610b8b565b9392505050565b60006020820190508181036000830152610c078184610b2d565b905092915050565b6000602082019050610c246000830184610b8b565b92915050565b6000602082019050610c3f6000830184610b9a565b92915050565b6000610c4f610c60565b9050610c5b8282610d4f565b919050565b6000604051905090565b600067ffffffffffffffff821115610c8557610c84610dd9565b5b602082029050602081019050919050565b6000819050602082019050919050565b600081519050919050565b6000602082019050919050565b600082825260208201905092915050565b6000610cda82610d42565b9150610ce583610d42565b92508260ff03821115610cfb57610cfa610daa565b5b828201905092915050565b6000610d1182610d18565b9050919050565b600073ffffffffffffffffffffffffffffffffffffffff82169050919050565b6000819050919050565b600060ff82169050919050565b610d5882610e08565b810181811067ffffffffffffffff82111715610d7757610d76610dd9565b5b80604052505050565b6000610d8b82610d42565b915060ff821415610d9f57610d9e610daa565b5b600182019050919050565b7f4e487b7100000000000000000000000000000000000000000000000000000000600052601160045260246000fd5b7f4e487b7100000000000000000000000000000000000000000000000000000000600052604160045260246000fd5b6000601f19601f8301169050919050565b610e2281610d06565b8114610e2d57600080fd5b50565b610e3981610d38565b8114610e4457600080fd5b50565b610e5081610d42565b8114610e5b57600080fd5b5056fea2646970667358221220dbb142aa5912b74b185f00bc75f62f5652bcaf1e8508205068a066afe88a0cef64736f6c63430008040033",
  "linkReferences": {},
  "deployedLinkReferences": {}
}